:020000040800F2
:1000000000000820B1780008917700089F77000869
:10001000A5770008AB770008B17700080000000062
:100020000000000000000000000000002166000841
:10003000B777000800000000216800088968000800
:1000400001790008017900080179000801790008A8
:100050000179000801790008017900080179000898
:100060000179000801790008017900080179000888
:100070000179000801790008017900080179000878
:100080000179000801790008017900080179000868
:100090000179000801790008017900080179000858
:1000A00001790008C5770008017900080179000886
:1000B0000179000801790008017900080179000838
:1000C0000179000801790008017900080179000828
:1000D000017900080179000801790008D977000842
:1000E0000179000801790008017900080179000808
:1000F00001790008017900080179000801790008F8
:1001000001790008017900080179000801790008E7
:1001100001790008017900080179000801790008D7
:1001200001790008017900080179000801790008C7
:1001300001790008017900080179000801790008B7
:1001400001790008017900080179000801790008A7
:100150000179000801790008017900080179000897
:100160000179000801790008017900080179000887
:1001700001790008017900080179000800000000F9
:100180000179000801790008017900080179000867
:100190000179000801790008017900080179000857
:1001A0000179000801790008017900080179000847
:1001B0000179000801790008017900080179000837
:1001C00001790008017900080000000001790008A9
:1001D0000179000801790008017900080179000817
:1001E0000179000801790008017900080179000807
:0801F000017900080179000803
:1002000010B5054C237833B9044B13B10448AFF350
:1002100000800123237010BD740000200000000046
:100220009C81000808B5034B1BB103490348AFF399
:10023000008008BD00000000780000209C810008BC
:1002400053B94AB9002908BF00281CBF4FF0FF313D
:100250004FF0FF3000F072B9ADF1080C6DE904CE3B
:1002600000F006F8DDF804E0DDE9022304B0704791
:100270002DE9F047089E04468846002B4BD18A4260
:10028000154667D9B2FA82F24AB1C2F1200701FAE3
:1002900002F320FA07F7954047EA030894404FEA33
:1002A000154E230CB8FBFEF71FFA85FC0EFB1788D2
:1002B00043EA084307FB0CF1994209D9EB1807F10F
:1002C000FF3080F01B81994240F21881023F2B449D
:1002D0005B1AA4B2B3FBFEF00EFB103344EA0344F6
:1002E00000FB0CFCA44509D92C1900F1FF3380F068
:1002F0000781A44540F2048102382C4440EA0740BB
:10030000A4EB0C0400271EB1D4400023C6E900432F
:100310003946BDE8F0878B4209D9002E00F0EB800A
:100320000027C6E9000138463946BDE8F087B3FA30
:1003300083F7002F47D18B4202D3824200F2FA802A
:10034000841A61EB030301209846002EE0D0C6E931
:100350000048DDE702B9FFDEB2FA82F2002A40F07F
:100360008F80491B4FEA154E1FFA85F80127B1FB14
:10037000FEFC230C0EFB1C1143EA014308FB0CF1AD
:10038000994207D9EB180CF1FF3002D2994200F2E2
:10039000CD808446591AA3B2B1FBFEF00EFB1014B7
:1003A00043EA044408FB00F8A04507D92C1900F1E2
:1003B000FF3302D2A04500F2B6801846A4EB080431
:1003C00040EA0C409FE7C7F1200CBB4022FA0CFE2C
:1003D0004EEA030E01FA07F420FA0CF521FA0CF3A9
:1003E0004FEA1E482543B3FBF8F92C0C08FB1933E0
:1003F0001FFA8EFA44EA034309FB0AF49C4202FA0C
:1004000007F200FA07F10BD91EEB030309F1FF30E5
:1004100080F087809C4240F28480A9F102097344F5
:100420001B1BADB2B3FBF8F008FB103345EA0344E5
:1004300000FB0AFAA24508D91EEB040400F1FF33C1
:100440006BD2A24569D90238744440EA0940A0FB46
:100450000289A4EB0A044C45C2464B4654D351D002
:10046000002E69D0B1EB0A0564EB030404FA0CFC1E
:10047000FD40FC404CEA0505C6E90054002747E76B
:10048000C2F1200320FA03F7954001FA02F021FAA5
:1004900003F34FEA154E3843010CB3FBFEF71FFA86
:1004A00085F80EFB173341EA034107FB08F38B4243
:1004B00004FA02F407D9691807F1FF3C2FD28B42E6
:1004C0002DD9023F2944CB1A81B2B3FBFEF00EFBBB
:1004D000103341EA034100FB08F38B4207D9691846
:1004E00000F1FF3C17D28B4215D902382944C91AB2
:1004F00040EA07473BE73746304609E70746E7E665
:100500001846FBE64145ABD2B8EB020A69EB0E0296
:1005100001381346A4E76046E9E7184695E76746C1
:10052000D1E781467CE702382C4447E7ACF1020C66
:100530002B442FE7384608E73746E9E6704700BF07
:1005400001F0FF01102A2BDB10F0070F08D010F884
:10055000013B013A8B422DD010F0070F42B3F6D188
:10056000F0B441EA012141EA014122F007047FF0A1
:1005700000070023F0E80256083C85EA010586EAF8
:10058000010685FA47F5A3FA87F586FA47F6A5FA34
:1005900087F68EB9EED1F0BC01F0FF0102F0070240
:1005A00032B110F8013B013A83EA010313B1F8D1EB
:1005B0000020704701387047002D06BF35460338CC
:1005C000073815F0010F07D1013015F4807F02BF05
:1005D000013015F4C03F0130F0BC0138704700BF56
:1005E00080B500AF032000F0F8F8002007F078F89D
:1005F00006F0EEFE0023184680BD000080B400AF78
:10060000064B1B781A46064B1B681344044A1360BA
:1006100000BFBD465DF8047B704700BF04000020AA
:10062000A88D002080B400AF034B1B681846BD4660
:100630005DF8047B704700BFA88D002080B584B0B2
:1006400000AF7860FFF7EEFFB8607B68FB60FB6887
:10065000B3F1FF3F05D0094B1B781A46FB681344E2
:10066000FB6000BFFFF7DEFF0246BB68D31AFA68E3
:100670009A42F7D800BF1037BD4680BD0400002065
:1006800080B485B000AF78607B6803F00703FB603F
:100690000B4BDB68BB60BA684FF6FF031340BB60CF
:1006A000FB681A02BB681A43064B1343BB60044A3B
:1006B000BB68D36000BF1437BD465DF8047B70474C
:1006C00000ED00E00000FA0580B400AF044BDB68E9
:1006D0001B0A03F007031846BD465DF8047B70470C
:1006E00000ED00E080B483B000AF0346FB7197F9E2
:1006F0000730002B0BDBFB7903F01F02074997F94A
:1007000007305B09012000FA02F241F8232000BF04
:100710000C37BD465DF8047B704700BF00E100E088
:1007200080B483B000AF03463960FB7197F907309E
:10073000002B0ADB3B68DAB20C4997F9073012014B
:10074000D2B20B4483F800230AE03B68DAB20849CE
:10075000FB7903F00F03043B1201D2B20B441A766B
:1007600000BF0C37BD465DF8047B704700E100E038
:1007700000ED00E080B489B000AFF860B9607A6045
:10078000FB6803F00703FB61FB69C3F10703042B5C
:1007900028BF0423BB61FB690433062B02D9FB6924
:1007A000033B00E000237B614FF0FF32BB6902FA9C
:1007B00003F3DA43BB681A407B699A404FF0FF317C
:1007C0007B6901FA03F3D9437B680B401343184656
:1007D0002437BD465DF8047B704780B582B000AF1A
:1007E00078607868FFF74CFF00BF0837BD4680BDD2
:1007F00080B586B000AF0346B9607A60FB73002312
:100800007B61FFF761FF78617A68B9687869FFF703
:10081000B1FF024697F90F3011461846FFF780FFE7
:1008200000BF1837BD4680BD80B582B000AF03461B
:10083000FB7197F907301846FFF754FF00BF0837E0
:10084000BD4680BD80B483B000AF78607B6893F80C
:100850003530DBB2022B04D07B6880225A6501233D
:100860000CE07B68052283F835207B681B681A68DA
:100870007B681B6822F001021A60002318460C37BF
:10088000BD465DF8047B704780B588B000AF7860E6
:100890000023FB610023FB60A94BBB6100237B614C
:1008A00000233B617B68002B01D1012383E17B683E
:1008B00093F84430DBB2002B06D17B68002283F82A
:1008C0004520786806F0ACFD9E4B5B6C9D4A43F476
:1008D000804353649B4B5B6C03F48043BB60BB68F9
:1008E000994B5B68984A23F400035360964B5A680F
:1008F0007B681B6A944913434B607B681B6803F554
:1009000080531A687B681B6842F0010203F580532C
:100910001A60FFF787FE786111E0FFF783FE024659
:100920007B69D31AB3F5FA7F09D97B68032283F870
:1009300044207B68002283F8452003233BE17B6849
:100940001B6803F580531B6803F00103002BE4D1FF
:100950007B681B681B69FB61FB6923F01C03FB615F
:1009600001F090FBB861BB69784A934208D9BB6932
:10097000774A934204D8FB6943F00803FB6127E000
:10098000BB69734A934208D9BB69724A934204D83F
:10099000FB6943F00C03FB611AE0BB696D4A9342AB
:1009A00003D9BB696C4A934211D9BB696A4A934225
:1009B00008D9BB69694A934204D8FB6943F0040330
:1009C000FB6105E0FB6943F01003FB6100E000BF41
:1009D0007B681B68FA691A614FF40042002178684D
:1009E00000F056F90346002B0BD001233B61396917
:1009F000786800F0B3F97B68012283F84420012372
:100A0000D9E0FF20FFF71AFE7B685B68002B00F03F
:100A1000A780FFF707FE786107F10C031A46012152
:100A2000786800F0CDF8FFF7FDFD02467B69D31A28
:100A300041F2883293420FD901233B6139697868CA
:100A400000F08CF97B68012283F844207B68002247
:100A500083F845200323AEE0FB6803F00403002B7A
:100A6000DAD04FF480520021786800F011F9034683
:100A7000002B0BD001233B613969786800F06EF9D7
:100A80007B68012283F84420012394E0FFF7CAFD2C
:100A9000786107F10C031A460121786800F090F89C
:100AA000FFF7C0FD02467B69D31A41F288329342B8
:100AB0000FD901233B613969786800F04FF97B68F1
:100AC000012283F844207B68002283F84520032319
:100AD00071E0FB6803F02003002BDAD007F10C0370
:100AE0001A461F21786800F06BF80346002B0BD0E4
:100AF00001233B613969786800F030F97B68012295
:100B000083F84420012356E0FB6803F01003002B18
:100B100004D07B684FF40062DA6002E07B68002258
:100B2000DA60FB6803F00403002B03D07B6800222B
:100B30009A6037E07B684FF480429A6032E000BFF1
:100B4000008793030038024000380140FF2C310138
:100B5000BF0E1602FF869303FFE0F5057FD1F00874
:100B60007B68DB68DB089AB27B689B685B089BB29A
:100B700013439BB21A460021786800F089F80346B7
:100B8000002B0BD001233B613969786800F0E6F84F
:100B90007B68012283F8442001230CE040F6FF70BB
:100BA000FFF74CFD3969786800F0D8F87B680122BE
:100BB00083F84420002318462037BD4680BD00BF7F
:100BC00080B586B000AFF8600B467A607B81002369
:100BD0007B6100233B61FB6893F84430DBB2822BDE
:100BE00001D1022350E0FB68822283F84420FB6895
:100BF0001B681B697B617B6903F01C037B61FB68DD
:100C00001B8ADB029BB27A6913437B617B899B0160
:100C100003F4F8637A6913437B617B6923F0020371
:100C20007B617B6943F001037B61FB681B687A6928
:100C30001A61FFF7F7FC386115E0FFF7F3FC024695
:100C40003B69D31AB3F5803F09D3FB68012283F8CF
:100C50004420FB68002283F84520032314E0FB684E
:100C60001B681B697B617B6903F00103002BE4D1E6
:100C7000FB681B685B699BB21A467B681A60FB685D
:100C8000012283F84420002318461837BD4680BD52
:100C900080B586B000AFF8600B467A607B81002398
:100CA0007B6100233B61FB6893F84430DBB2422B4D
:100CB00001D102234EE0FB68422283F84420FB6806
:100CC0001B681B697B617B6903F01C037B61FB680C
:100CD0001B8ADB029BB27A6913437B617B899B0190
:100CE00003F4F8637A6913437B617B6943F0020381
:100CF0007B617B6943F001037B617B689AB2FB688F
:100D00001B685A61FB681B687A691A61FFF78AFCE5
:100D1000386115E0FFF786FC02463B69D31AB3F54C
:100D2000803F09D3FB68012283F84420FB6800223E
:100D300083F8452003230DE0FB681B681B697B617A
:100D40007B6903F00103002BE4D1FB68012283F8E7
:100D50004420002318461837BD4680BD80B5B0B08A
:100D600000AF786039600023C7F8BC303B68002BC7
:100D700007D07B684FF40062DA607B684FF48042F2
:100D80009A600023BB640023FB6400233B650023BF
:100D90007B650023BB650023FB657B68DB69002B5B
:100DA00003D14FF480633B6601E000233B664FF4C0
:100DB00000737B660023BB660023FB6600233B6752
:100DC00000237B670023BB674023FB670023C7F832
:100DD00080300023C7F884300023C7F88830002310
:100DE000C7F88C300023C7F890300023C7F8943040
:100DF0000023C7F898300023C7F89C308023C7F839
:100E0000A0300023C7F8A4300023C7F8A83000237F
:100E1000C7F8AC300023C7F8B0300023C7F8B430AF
:100E20000023C7F8B8307B681B681B68C7F8BC3064
:100E3000D7F8BC20AB4B1340C7F8BC30BA6CFB6C86
:100E40001A433B6D1A437B6D1A437B689B681A43B8
:100E5000BB6D1A43FB6D1A437B68DB681A433B6E1C
:100E60001A437B6E1A43BB6E1A43FB6E1A433B6FE9
:100E70001343D7F8BC201343C7F8BC307B681B680A
:100E8000D7F8BC201A607B681B681B68C7F8BC30A9
:100E90000120FFF7D3FB7B681B68D7F8BC201A60E2
:100EA0007A6FBB6F1A43FB6F1A43D7F880301A432F
:100EB000D7F884301A43D7F888301A43D7F88C30E3
:100EC00042EA0301D7F890207B681B680A435A6006
:100ED0007B681B685B68C7F8BC300120FFF7AEFB7E
:100EE0007B681B68D7F8BC205A607B681B68D7F802
:100EF00094209A607B681B68D7F89820DA607B683A
:100F00001B689B69C7F8BC30D7F8BC204FF641730B
:100F10001340C7F8BC30D7F89C301A04D7F8A0307B
:100F20001A43D7F8A4301A43D7F8A8301A43D7F891
:100F3000AC301A43D7F8B0301343D7F8BC20134372
:100F4000C7F8BC307B681B68D7F8BC209A617B6807
:100F50001B689B69C7F8BC300120FFF76FFB7B68FB
:100F60001B68D7F8BC209A61D7F8B410D7F8B8201E
:100F70007B681B680A43DA617B681B68DB69C7F81A
:100F8000BC300120FFF75AFB7B681B68D7F8BC20F8
:100F9000DA610023BB604FF00073FB6000233B610C
:100FA0004FF400137B610023BB610023FB6100232E
:100FB0003B6200237B620423BB624FF00073FB6241
:100FC0004FF480333B634FF480037B634FF4005353
:100FD000BB638023FB6300233B6400237B647B684B
:100FE0001A6841F2180313441B68C7F8BC30D7F8DD
:100FF000BC203D4B1340C7F8BC30BA68FB681A43AD
:101000003B691A437B691A43BB691A43FB691A435C
:101010003B6A1A437B6A1A43BB6A1343D7F8BC2066
:101020001343C7F8BC307B681A6841F218031344B5
:10103000D7F8BC201A607B681A6841F21803134481
:101040001B68C7F8BC300120FFF7F8FA7B681A6804
:1010500041F218031344D7F8BC201A60FA6A3B6BBC
:101060001A437B6B1A43BB6B1A43FB6B1A433B6CF3
:101070009B001A437B6C1A437B681B6842F4000296
:1010800003F580531A607B681B6803F580531B6867
:10109000C7F8BC300120FFF7D1FA7B681B6803F565
:1010A0008053D7F8BC201A607B689B69012B0DD157
:1010B0007B681A6841F21C0313441B687A68116844
:1010C0000A4A1A4341F21C030B441A607B685B69AD
:1010D0001A460021786800F00BF800BFC037BD4603
:1010E00080BD00BF0F8120FF233FDEF840000100DC
:1010F00080B487B000AFF860B9607A607B68053370
:101100001B781B027A680432127813437B61BA6839
:10111000114B13441A467B6913607B6803331B78B9
:101120001A067B6802331B781B041A437B68013361
:101130001B781B0213437A68127813437B61BA68E9
:10114000064B13441A467B69136000BF1C37BD462B
:101150005DF8047B704700BF40800240448002403D
:1011600080B489B000AF786039600023FB61002350
:101170007B6100233B610023BB610023FB6175E1C0
:101180000122FB6902FA03F37B613B681B687A6901
:1011900013403B613A697B699A4240F064813B6845
:1011A0005B68022B03D03B685B68122B23D1FB6981
:1011B000DA087B68083253F82230BB61FB6903F020
:1011C00007039B000F2202FA03F3DB43BA691340C3
:1011D000BB613B681A69FB6903F007039B0002FAD5
:1011E00003F3BA691343BB61FB69DA087B68083211
:1011F000B96943F822107B681B68BB61FB695B001F
:10120000032202FA03F3DB43BA691340BB613B6874
:101210005B6803F00302FB695B0002FA03F3BA693F
:101220001343BB617B68BA691A603B685B68012B3A
:101230000BD03B685B68022B07D03B685B68112BC7
:1012400003D03B685B68122B30D17B689B68BB6125
:10125000FB695B00032202FA03F3DB43BA69134024
:10126000BB613B68DA68FB695B0002FA03F3BA69A9
:101270001343BB617B68BA699A607B685B68BB613A
:101280000122FB6902FA03F3DB43BA691340BB6135
:101290003B685B681B0903F00102FB6902FA03F378
:1012A000BA691343BB617B68BA695A607B68DB68C3
:1012B000BB61FB695B00032202FA03F3DB43BA69FB
:1012C0001340BB613B689A68FB695B0002FA03F359
:1012D000BA691343BB617B68BA69DA603B685B68D3
:1012E00003F08053002B00F0BE80654B5B6C644ABA
:1012F00043F480435364624B5B6C03F48043FB60B4
:10130000FB68604AFB699B08023352F82330BB61DB
:10131000FB6903F003039B000F2202FA03F3DB4394
:10132000BA691340BB617B68574A934237D07B68E8
:10133000564A934231D07B68554A93422BD07B6802
:10134000544A934225D07B68534A93421FD07B680E
:10135000524A934219D07B68514A934213D07B681A
:10136000504A93420DD07B684F4A934207D07B6826
:101370004E4A934201D1092312E00A2310E00823C8
:101380000EE007230CE006230AE0052308E004230F
:1013900006E0032304E0022302E0012300E000232F
:1013A000FA6902F0030292009340BA691343BB61E9
:1013B0003449FB699B080233BA6941F823203C4B4E
:1013C0001B68BB613B69DB43BA691340BB613B6887
:1013D0005B6803F48033002B03D0BA693B69134385
:1013E000BB61334ABB691360314B5B68BB613B69CE
:1013F000DB43BA691340BB613B685B6803F40033AD
:10140000002B03D0BA693B691343BB61284ABB690F
:101410005360274B9B68BB613B69DB43BA69134050
:10142000BB613B685B6803F48013002B03D0BA698F
:101430003B691343BB611E4ABB6993601C4BDB686D
:10144000BB613B69DB43BA691340BB613B685B68C6
:1014500003F40013002B03D0BA693B691343BB614B
:10146000134ABB69D360FB690133FB61FB690F2B36
:101470007FF686AE00BF2437BD465DF8047B70471B
:1014800000380240003801400000024000040240E1
:1014900000080240000C024000100240001402400C
:1014A00000180240001C02400020024000240240BC
:1014B000003C014080B483B000AF78600B467B8075
:1014C00013467B707B78002B03D07A887B689A6107
:1014D00003E07B881A047B689A6100BF0C37BD4625
:1014E0005DF8047B7047F0B58FB00AAF78607B6819
:1014F000002B01D101230AE17B6893F8BD33DBB2F5
:10150000002B06D17B68002283F8BC23786806F0A4
:101510008BF87B68032283F8BD237B681B68184621
:1015200002F058FB7B681B683B607E686D4606F1E5
:1015300010040FCC0FC50FCC0FC594E8030085E84D
:101540000300331D0ECB386802F0ECFA0346002B83
:1015500005D07B68022283F8BD230123D7E07B6896
:101560001B680021184602F046FB0023FB734AE08B
:10157000FA7B79681346DB009B1A9B000B443D33D2
:1015800001221A70FA7B79681346DB009B1A9B00D4
:101590000B443C33FA7B1A70FA7BFB7B98B2796878
:1015A0001346DB009B1A9B000B44423302461A8011
:1015B000FA7B79681346DB009B1A9B000B443F3390
:1015C00000221A70FA7B79681346DB009B1A9B0095
:1015D0000B44443300221A60FA7B79681346DB001F
:1015E0009B1A9B000B44483300221A60FA7B7968EF
:1015F0001346DB009B1A9B000B44503300221A60F9
:10160000FB7B0133FB73FA7B7B685B689A42AFD349
:101610000023FB7344E0FA7B79681346DB009B1AD6
:101620009B000B4403F2FD1300221A70FA7B7968C9
:101630001346DB009B1A9B000B4403F5FE73FA7BF9
:101640001A70FA7B79681346DB009B1A9B000B44E7
:1016500003F2FF1300221A70FA7B79681346DB004D
:101660009B1A9B000B4403F5017300221A60FA7B5E
:1016700079681346DB009B1A9B000B4403F5027349
:1016800000221A60FA7B79681346DB009B1A9B00E4
:101690000B4403F5047300221A60FB7B0133FB73D8
:1016A000FA7B7B685B689A42B5D37B681B683B60BA
:1016B0007E686D4606F110040FCC0FC50FCC0FC528
:1016C00094E8030085E80300331D0ECB386802F070
:1016D000BDFA0346002B05D07B68022283F8BD23A8
:1016E000012314E07B68002283F838207B68012204
:1016F00083F8BD237B685B6A012B02D1786800F018
:101700000BF87B681B68184602F07DFC0023184626
:101710001437BD46F0BD000080B485B000AF7860DE
:101720007B681B68FB607B680122C3F8FC237B6835
:10173000002283F8F423FB689B6943F00062FB6896
:101740009A61FB685A6D054B1343FA685365002391
:1017500018461437BD465DF8047B7047030000103F
:1017600080B400AF054B1B68044A43F480731360D8
:1017700000BFBD465DF8047B704700BF00700040AD
:1017800080B582B000AF00237B60234B1B6C224AE4
:1017900043F080531364204B1B6C03F080533B6079
:1017A0003B681E4B1B681D4A43F480331360FEF7F1
:1017B00039FF786009E0FEF735FF02467B68D31AEF
:1017C000B3F57A7F01D9032322E0144B5B6803F45D
:1017D0008033B3F5803FEED1104B1B680F4A43F4C2
:1017E00000331360FEF71EFF786009E0FEF71AFF72
:1017F00002467B68D31AB3F57A7F01D9032307E049
:10180000064B5B6803F40033B3F5003FEED10023D1
:1018100018460837BD4680BD0038024000700040C1
:1018200080B586B000AF78600023FB757B68002B25
:1018300001D101235EE27B681B6803F00103002BEA
:1018400000F08780964B9B6803F00C03042B0CD0B0
:10185000934B9B6803F00C03082B12D1904B5B68F1
:1018600003F48003B3F5800F0BD18D4B1B6803F499
:101870000033002B6CD07B685B68002B68D10123A0
:1018800038E27B685B68B3F5803F06D1844B1B6808
:10189000834A43F4803313602EE07B685B68002B3F
:1018A0000CD17F4B1B687E4A23F4803313607C4B42
:1018B0001B687B4A23F4802313601DE07B685B6810
:1018C000B3F5A02F0CD1764B1B68754A43F48023E7
:1018D0001360734B1B68724A43F4803313600BE050
:1018E0006F4B1B686E4A23F4803313606C4B1B688C
:1018F0006B4A23F4802313607B685B68002B13D052
:10190000FEF790FE386108E0FEF78CFE02463B6968
:10191000D31A642B01D90323ECE1614B1B6803F458
:101920000033002BF0D014E0FEF77CFE386108E0B5
:10193000FEF778FE02463B69D31A642B01D90323D4
:10194000D8E1574B1B6803F40033002BF0D100E0C3
:1019500000BF7B681B6803F00203002B69D0504B6B
:101960009B6803F00C03002B0BD04D4B9B6803F0DE
:101970000C03082B1CD14A4B5B6803F48003002B3B
:1019800016D1474B1B6803F00203002B05D07B6880
:10199000DB68012B01D00123ACE1414B1B6823F034
:1019A000F8027B681B69DB003D4913430B6040E094
:1019B0007B68DB68002B23D0394B1B68384A43F027
:1019C00001031360FEF72EFE386108E0FEF72AFEE1
:1019D00002463B69D31A022B01D903238AE1304B1B
:1019E0001B6803F00203002BF0D02D4B1B6823F083
:1019F000F8027B681B69DB00294913430B6018E080
:101A0000274B1B68264A23F001031360FEF70AFEEA
:101A1000386108E0FEF706FE02463B69D31A022B46
:101A200001D9032366E11E4B1B6803F00203002B60
:101A3000F0D17B681B6803F00803002B38D07B686B
:101A40005B69002B19D0164B5B6F154A43F00103FD
:101A50005367FEF7E7FD386108E0FEF7E3FD024655
:101A60003B69D31A022B01D9032343E10C4B5B6F73
:101A700003F00203002BF0D01AE0094B5B6F084A19
:101A800023F001035367FEF7CDFD38610AE0FEF74E
:101A9000C9FD02463B69D31A022B03D9032329E16E
:101AA00000380240954B5B6F03F00203002BEED130
:101AB0007B681B6803F00403002B00F0A4808F4BAD
:101AC0001B6C03F08053002B0DD18C4B1B6C8B4A8D
:101AD00043F080531364894B1B6C03F08053FB600D
:101AE000FB680123FB75864B1B6803F48073002B96
:101AF00018D1834B1B68824A43F480731360FEF74E
:101B000091FD386108E0FEF78DFD02463B69D31A6E
:101B1000642B01D90323EDE0794B1B6803F4807338
:101B2000002BF0D07B689B68012B06D1734B1B6F99
:101B3000724A43F0010313672DE07B689B68002B1A
:101B40000CD16E4B1B6F6D4A23F0010313676B4B77
:101B50001B6F6A4A23F0040313671CE07B689B68D1
:101B6000052B0CD1654B1B6F644A43F004031367CC
:101B7000624B1B6F614A43F0010313670BE05F4B3D
:101B80001B6F5E4A23F0010313675C4B1B6F5B4ABC
:101B900023F0040313677B689B68002B15D0FEF7C6
:101BA00041FD38610AE0FEF73DFD02463B69D31A6C
:101BB00041F28832934201D903239BE04F4B1B6FC4
:101BC00003F00203002BEED014E0FEF72BFD38618A
:101BD0000AE0FEF727FD02463B69D31A41F288323C
:101BE000934201D9032385E0444B1B6F03F00203AA
:101BF000002BEED1FB7D012B05D1404B1B6C3F4AE6
:101C000023F0805313647B689B69002B71D03B4B9E
:101C10009B6803F00C03082B69D07B689B69022B3F
:101C20004BD1364B1B68354A23F080731360FEF7A7
:101C3000F9FC386108E0FEF7F5FC02463B69D31A6F
:101C4000022B01D9032355E02C4B1B6803F00073D2
:101C5000002BF0D17B68DA697B681B6A1A437B68CA
:101C60005B6A9B011A437B689B6A5B08013B1B0410
:101C70001A437B68DB6A1B061A437B681B6B1B07D6
:101C80001E4913434B601D4B1B681C4A43F0807375
:101C90001360FEF7C7FC386108E0FEF7C3FC02469C
:101CA0003B69D31A022B01D9032323E0134B1B6892
:101CB00003F00073002BF0D01BE0104B1B680F4AA1
:101CC00023F080731360FEF7ADFC386108E0FEF787
:101CD000A9FC02463B69D31A022B01D9032309E070
:101CE000064B1B6803F00073002BF0D101E00123C9
:101CF00000E0002318461837BD4680BD003802407A
:101D00000070004080B584B000AF78603960002377
:101D1000FB607B68002B01D10123CEE0694B1B687F
:101D200003F00F033A689A4210D9664B1B6823F000
:101D30000F0264493B6813430B60624B1B6803F05E
:101D40000F033A689A4201D00123B6E07B681B6812
:101D500003F00203002B20D07B681B6803F0040310
:101D6000002B05D0584B9B68574A43F4E0539360CF
:101D70007B681B6803F00803002B05D0524B9B685F
:101D8000514A43F4604393604F4B9B6823F0F00249
:101D90007B689B684C4913438B607B681B6803F02E
:101DA0000103002B40D07B685B68012B07D1464BB9
:101DB0001B6803F40033002B15D101237DE07B6801
:101DC0005B68022B07D1404B1B6803F00073002BAC
:101DD00009D1012371E03C4B1B6803F00203002B87
:101DE00001D1012369E0384B9B6823F003027B6833
:101DF0005B68354913438B60FEF714FCF8600AE01A
:101E0000FEF710FC0246FB68D31A41F28832934277
:101E100001D9032351E02C4B9B6803F00C027B6833
:101E20005B689B009A42EBD1264B1B6803F00F03C3
:101E30003A689A4210D2234B1B6823F00F022149C3
:101E40003B6813430B601F4B1B6803F00F033A689A
:101E50009A4201D0012330E07B681B6803F0040341
:101E6000002B08D0184B9B6823F4E0527B68DB689A
:101E7000154913438B607B681B6803F00803002B34
:101E800009D0114B9B6823F460427B681B69DB001F
:101E90000D4913438B6000F01DF801460A4B9B6807
:101EA0001B0903F00F03094AD35C21FA03F3084A24
:101EB0001360002005F014FC002318461037BD46BF
:101EC00080BD00BF003C0240003802404C82000848
:101ED0000C000020F0B585B000AF00237B6000232C
:101EE000FB6000233B600023BB60634B9B6803F0F7
:101EF0000C03042B07D0082B08D0002B40F0B48033
:101F00005E4BBB60B3E05E4BBB60B0E05A4B5B68BE
:101F100003F03F037B60584B5B6803F48003002BA6
:101F20004AD0554B5B689B094FF0000440F2FF110B
:101F30004FF0000203EA010504EA02062946324690
:101F40004FF000034FF00004540144EAD1644B0108
:101F500019462246491B62EB06024FF000034FF080
:101F60000004940144EA91648B015B1A64EB02045F
:101F70004FF000014FF00002E20042EA5372D90034
:101F80000B4614465B1944EB06044FF000014FF07A
:101F90000002620242EAD35259020B461446184626
:101FA00021467B684FF000041A462346FEF748F9A5
:101FB00003460C46FB6049E02F4B5B689B094FF0E2
:101FC000000440F2FF114FF0000203EA010504EAA9
:101FD0000206294632464FF000034FF00004540138
:101FE00044EAD1644B0119462246491B62EB0602C2
:101FF0004FF000034FF00004940144EA91648B0118
:102000005B1A64EB02044FF000014FF00002E200A3
:1020100042EA5372D9000B4614465B1944EB06049E
:102020004FF000014FF00002A20242EA93529902DF
:102030000B461446184621467B684FF000041A46AA
:102040002346FEF7FDF803460C46FB600A4B5B682F
:102050001B0C03F0030301335B003B60FA683B6831
:10206000B2FBF3F3BB6002E0044BBB6000BFBB6894
:1020700018461437BD46F0BD003802400024F40075
:1020800000127A0080B400AF034B1B681846BD46AF
:102090005DF8047B704700BF0C00002080B500AFE6
:1020A000FFF7F0FF0146054B9B689B0A03F007030F
:1020B000034AD35C21FA03F3184680BD003802407E
:1020C0005C82000880B500AFFFF7DCFF0146054BDE
:1020D0009B685B0B03F00703034AD35C21FA03F30D
:1020E000184680BD003802405C82000880B483B08E
:1020F00000AF786039607B680F221A60124B9B68D2
:1021000003F003027B685A600F4B9B6803F0F002F8
:102110007B689A600C4B9B6803F4E0527B68DA6042
:10212000094B9B68DB0803F4E0527B681A61074B9C
:102130001B6803F00F023B681A6000BF0C37BD46F6
:102140005DF8047B704700BF00380240003C02404D
:1021500080B588B000AF786000237B6100233B61CD
:102160000023FB600023FB610023BB617B681B68CD
:1021700003F00103002B12D0694B9B68684A23F4DB
:1021800000039360664B9A687B685B6B64491343FA
:102190008B607B685B6B002B01D10123FB617B684B
:1021A0001B6803F40023002B17D05D4BD3F88C3051
:1021B00023F440127B68DB6B59491343C1F88C3020
:1021C0007B68DB6BB3F5801F01D10123FB617B686A
:1021D000DB6B002B01D10123BB617B681B6803F41F
:1021E0008013002B17D04E4BD3F88C3023F44002D1
:1021F0007B681B6C4A491343C1F88C307B681B6CAD
:10220000B3F5800F01D10123FB617B681B6C002BB0
:1022100001D10123BB617B681B6803F08073002B35
:1022200001D00123FB617B681B6803F02003002BB6
:1022300000F08B803A4B1B6C394A43F08053136497
:10224000374B1B6C03F08053BB60BB68354B1B687E
:10225000344A43F480731360FEF7E4F9786108E0D0
:10226000FEF7E0F902467B69D31A642B01D90323F8
:102270008DE32C4B1B6803F48073002BF0D0284BAC
:102280001B6F03F440733B613B69002B35D07B68C7
:102290001B6B03F440733A699A422ED0204B1B6F9C
:1022A00023F440733B611E4B1B6F1D4A43F4803384
:1022B00013671B4B1B6F1A4A23F480331367184AAA
:1022C0003B691367164B1B6F03F00103012B14D1FD
:1022D000FEF7A8F978610AE0FEF7A4F902467B69E7
:1022E000D31A41F28832934201D903234FE30C4BB6
:1022F0001B6F03F00203002BEED07B681B6B03F413
:102300004073B3F5407F11D1054B9B6823F4F8125D
:102310007B68196B044B0B40014913438B600BE046
:102320000038024000700040FFFCFF0FB34B9B6879
:10233000B24A23F4F8139360B04B1A6F7B681B6B9F
:10234000C3F30B03AD4913430B677B681B6803F0B2
:102350001003002B10D0A94BD3F88C30A74A23F0E0
:102360008073C2F88C30A54BD3F88C207B689B6BB4
:10237000A2491343C1F88C307B681B6803F4804387
:10238000002B0AD09D4BD3F8903023F440327B6869
:102390005B6E9A491343C1F890307B681B6803F465
:1023A0000043002B0AD0954BD3F8903023F4402201
:1023B0007B689B6E91491343C1F890307B681B6822
:1023C00003F48033002B0AD08C4BD3F8903023F4E5
:1023D00040127B68DB6E89491343C1F890307B68FB
:1023E0001B6803F40033002B0AD0844BD3F89030E1
:1023F00023F440027B681B6F80491343C1F890307F
:102400007B681B6803F04003002B0AD07B4BD3F89A
:10241000903023F003027B685B6C78491343C1F86A
:1024200090307B681B6803F08003002B0AD0734B4D
:10243000D3F8903023F00C027B689B6C6F491343F8
:10244000C1F890307B681B6803F48073002B0AD0BE
:102450006A4BD3F8903023F030027B68DB6C67491D
:102460001343C1F890307B681B6803F40073002BA2
:102470000AD0624BD3F8903023F0C0027B681B6D0A
:102480005E491343C1F890307B681B6803F4806396
:10249000002B0AD0594BD3F8903023F440727B685C
:1024A0005B6D56491343C1F890307B681B6803F499
:1024B0000063002B0AD0514BD3F8903023F44062D4
:1024C0007B689B6D4D491343C1F890307B681B6856
:1024D00003F48053002B0AD0484BD3F8903023F4F8
:1024E00040527B68DB6D45491343C1F890307B68EF
:1024F0001B6803F40053002B0AD0404BD3F89030F4
:1025000023F440427B681B6E3C491343C1F8903072
:102510007B681B6803F48003002B0AD0374BD3F889
:10252000903023F080627B689B6F34491343C1F87D
:1025300090307B681B6803F40013002B11D02F4BE5
:10254000D3F8903023F000627B68DB6F2B49134394
:10255000C1F890307B68DB6FB3F1006F01D10123CC
:10256000BB617B681B6803F00803002B01D00123CB
:10257000BB617B681B6803F48023002B0AD01F4BD0
:10258000D3F8903023F040727B685B6F1B49134394
:10259000C1F890307B681B6803F40003002B0BD05C
:1025A000164BD3F8903023F080527B68D3F88030FC
:1025B00012491343C1F890307B681B6803F08063B5
:1025C000002B0BD00D4BD3F8903023F000527B68DA
:1025D000D3F8843009491343C1F890307B681B68F5
:1025E00003F00063002B0FD0044BD3F88C3023F0A2
:1025F00000727B68D3F8883002E000BF00380240E8
:1026000085491343C1F88C307B681B6803F0805305
:10261000002B0BD0804BD3F88C3023F080627B688A
:10262000D3F88C307C491343C1F88C30FB69012B03
:1026300005D07B681B68B3F1007F40F0D680764BF5
:102640001B68754A23F080631360FDF7EBFF786128
:1026500008E0FDF7E7FF02467B69D31A642B01D936
:10266000032394E16C4B1B6803F00063002BF0D153
:102670007B681B6803F00103002B21D07B685B6B38
:10268000002B1DD1644BD3F884301B0C03F00303E3
:102690003B61614BD3F884301B0E03F00F03FB60EA
:1026A0007B685B689A013B691B041A43FB681B0645
:1026B0001A437B689B681B0757491343C1F8843052
:1026C0007B681B6803F40023002B04D07B68DB6B62
:1026D000B3F5801F0AD07B681B6803F48013002BBE
:1026E0002ED07B681B6CB3F5800F29D14A4BD3F8F1
:1026F00084301B0C03F003033B61474BD3F8843059
:102700001B0F03F00703FB607B685B689A013B6962
:102710001B041A437B68DB681B061A43FB681B0714
:102720003D491343C1F884303B4BD3F88C3023F040
:102730001F027B685B6A013B37491343C1F88C3049
:102740007B681B6803F08073002B1DD0324BD3F8DD
:1027500084301B0E03F00F033B612F4BD3F8843002
:102760001B0F03F00703FB607B685B689A017B68C3
:102770001B691B041A433B691B061A43FB681B07B2
:1027800025491343C1F884307B681B6803F000734C
:10279000002B11D07B685B689A017B681B691B0466
:1027A0001A437B68DB681B061A437B689B681B0720
:1027B00019491343C1F88430174B1B68164A43F07C
:1027C00080631360FDF72EFF786108E0FDF72AFFB4
:1027D00002467B69D31A642B01D90323D7E00E4B41
:1027E0001B6803F00063002BF0D0BB69012B40F0A5
:1027F000CD80094B1B68084A23F080531360FDF716
:1028000011FF78610AE0FDF70DFF02467B69D31ADC
:10281000642B03D90323BAE0003802405E4B1B68E7
:1028200003F00053B3F1005FEDD07B681B6803F445
:102830000023002B03D07B68DB6B002B09D07B6867
:102840001B6803F48013002B2ED07B681B6C002BBD
:102850002AD1514BD3F888301B0C03F003033B61A2
:102860004D4BD3F888301B0F03F00703FB607B68E8
:102870005B699A013B691B041A437B689B691B06D1
:102880001A43FB681B0744491343C1F88830424B85
:10289000D3F88C3023F4F8527B689B6A013B1B020F
:1028A0003D491343C1F88C307B681B6803F4001367
:1028B000002B22D07B68DB6FB3F1006F1DD1364B4C
:1028C000D3F888301B0E03F00F033B61324BD3F873
:1028D00088301B0F03F00703FB607B685B699A017C
:1028E0007B681B6A1B041A433B691B061A43FB687F
:1028F0001B0729491343C1F888307B681B6803F024
:102900000803002B28D0244BD3F888301B0E03F08B
:102910000F033B61204BD3F888301B0C03F00303FB
:10292000FB607B685B699A01FB681B041A433B6987
:102930001B061A437B68DB691B0717491343C1F861
:102940008830154BD3F88C3023F440327B68DB6A37
:1029500011491343C1F88C300F4B1B680E4A43F0EA
:1029600080531360FDF75EFE786108E0FDF75AFEC4
:1029700002467B69D31A642B01D9032307E0064B77
:102980001B6803F00053B3F1005FEFD1002318463A
:102990002037BD4680BD00BF0038024080B582B000
:1029A00000AF78607B68002B01D101231DE07B68BC
:1029B00093F83D30DBB2002B06D17B68002283F810
:1029C0003C20786800F015F87B68022283F83D20EF
:1029D0007B681A687B6804331946104600F086F954
:1029E0007B68012283F83D20002318460837BD4646
:1029F00080BD80B483B000AF786000BF0C37BD46A7
:102A00005DF8047B7047000080B485B000AF78604B
:102A10007B681B68DA687B681B6842F00102DA6039
:102A20007B681B689A680C4B1340FB60FB68062BA5
:102A30000BD0FB68B3F5803F07D07B681B681A6832
:102A40007B681B6842F001021A60002318461437A5
:102A5000BD465DF8047B70470700010080B582B079
:102A600000AF78607B681B681B6903F00203022BD0
:102A700022D17B681B68DB6803F00203022B1BD1A9
:102A80007B681B686FF002021A617B6801221A776B
:102A90007B681B689B6903F00303002B03D07868F5
:102AA00000F005F905E0786800F0F7F8786800F0C4
:102AB00008F97B6800221A777B681B681B6903F0A2
:102AC0000403042B22D17B681B68DB6803F004033A
:102AD000042B1BD17B681B686FF004021A617B68B2
:102AE00002221A777B681B689B6903F44073002BF2
:102AF00003D0786800F0DBF805E0786800F0CDF8E6
:102B0000786800F0DEF87B6800221A777B681B6823
:102B10001B6903F00803082B22D17B681B68DB6864
:102B200003F00803082B1BD17B681B686FF00802B9
:102B30001A617B6804221A777B681B68DB6903F0E3
:102B40000303002B03D0786800F0B1F805E0786843
:102B500000F0A3F8786800F0B4F87B6800221A77D8
:102B60007B681B681B6903F01003102B22D17B6864
:102B70001B68DB6803F01003102B1BD17B681B68FC
:102B80006FF010021A617B6808221A777B681B6855
:102B9000DB6903F44073002B03D0786800F087F8FA
:102BA00005E0786800F079F8786800F08AF87B68CA
:102BB00000221A777B681B681B6903F00103012B55
:102BC0000ED17B681B68DB6803F00103012B07D182
:102BD0007B681B686FF001021A61786804F0DEFB05
:102BE0007B681B681B6903F08003802B0ED17B6818
:102BF0001B68DB6803F08003802B07D17B681B68B0
:102C00006FF080021A61786800F01AF97B681B681F
:102C10001B6903F48073B3F5807F0ED17B681B685A
:102C2000DB6803F08003802B07D17B681B686FF49F
:102C300080721A61786800F00DF97B681B681B6967
:102C400003F04003402B0ED17B681B68DB6803F068
:102C50004003402B07D17B681B686FF040021A616C
:102C6000786800F038F87B681B681B6903F0200364
:102C7000202B0ED17B681B68DB6803F02003202B20
:102C800007D17B681B686FF020021A61786800F03A
:102C9000CDF800BF0837BD4680BD80B483B000AF1B
:102CA000786000BF0C37BD465DF8047B704780B488
:102CB00083B000AF786000BF0C37BD465DF8047B81
:102CC000704780B483B000AF786000BF0C37BD465A
:102CD0005DF8047B704780B483B000AF786000BFBC
:102CE0000C37BD465DF8047B7047000080B485B0AA
:102CF00000AF786039607B681B68FB607B68404A86
:102D0000934213D07B68B3F1804F0FD07B683D4A6C
:102D100093420BD07B683C4A934207D07B683B4A86
:102D2000934203D07B683A4A934208D1FB6823F070
:102D30007003FB603B685B68FA681343FB607B6869
:102D40002F4A93422BD07B68B3F1804F27D07B680A
:102D50002C4A934223D07B682B4A93421FD07B6836
:102D60002A4A93421BD07B68294A934217D07B683A
:102D7000284A934213D07B68274A93420FD07B683E
:102D8000264A93420BD07B68254A934207D07B6842
:102D9000244A934203D07B68234A934208D1FB68BC
:102DA00023F44073FB603B68DB68FA681343FB6005
:102DB000FB6823F080023B685B691343FB607B6820
:102DC000FA681A603B689A687B68DA623B681A683E
:102DD0007B689A627B680A4A934203D07B680C4AFC
:102DE000934203D13B681A697B681A637B680122AE
:102DF0005A6100BF1437BD465DF8047B704700BFC1
:102E0000000001400004004000080040000C0040A9
:102E100000040140004001400044014000480140DE
:102E200000180040001C00400020004080B483B027
:102E300000AF786000BF0C37BD465DF8047B70477B
:102E400080B483B000AF786000BF0C37BD465DF83A
:102E5000047B704780B483B000AF786000BF0C374C
:102E6000BD465DF8047B704780B582B000AF7860E6
:102E70007B68002B01D1012340E07B685B6F002B56
:102E800006D17B68002283F87020786804F080FB0C
:102E90007B6824225A677B681B681A687B681B68FA
:102EA00022F001021A60786800F0B8F90346012B9D
:102EB00001D1012322E07B685B6A002B02D0786895
:102EC00000F050FC7B681B685A687B681B6822F422
:102ED00090425A607B681B689A687B681B6822F086
:102EE0002A029A607B681B681A687B681B6842F03C
:102EF00001021A60786800F0D7FC034618460837CC
:102F0000BD4680BD80B485B000AFF860B96013469F
:102F1000FB80FB685B6F202B44D1BB68002B02D089
:102F2000FB88002B01D101233DE0FB6893F8703052
:102F3000012B01D1022336E0FB68012283F87020C7
:102F4000FB68BA68DA64FB68FA88A3F85020FB686B
:102F5000FA88A3F85220FB6800225A66FB68002218
:102F6000DA67FB6821225A67FB689B68B3F5805FCC
:102F700007D1FB681B69002B03D1FB680D4A5A6619
:102F800002E0FB680C4A5A66FB68002283F8702056
:102F9000FB681B681A68FB681B6842F080021A60B5
:102FA000002300E0022318461437BD465DF8047B79
:102FB000704700BF753A0008033A000880B588B032
:102FC00000AF78607B681B68DB69FB617B681B680E
:102FD0001B68BB617B681B689B687B61FB6903F0B6
:102FE0000F033B613B69002B13D1FB6903F0200306
:102FF000002B0ED0BB6903F02003002B09D07B68A7
:103000001B6E002B00F0EB807B681B6E7868984786
:10301000E5E03B69002B00F0C0807B6903F0010311
:10302000002B05D1BB6903F49073002B00F0B58031
:10303000FB6903F00103002B0ED0BB6903F480731E
:10304000002B09D07B681B6801221A627B68DB6F4A
:1030500043F001027B68DA67FB6903F00203002B8F
:103060000ED07B6903F00103002B09D07B681B683D
:1030700002221A627B68DB6F43F004027B68DA6726
:10308000FB6903F00403002B0ED07B6903F00103FE
:10309000002B09D07B681B6804221A627B68DB6FF7
:1030A00043F002027B68DA67FB6903F00803002B38
:1030B00013D0BB6903F02003002B04D17B6903F01C
:1030C0000103002B09D07B681B6808221A627B6809
:1030D000DB6F43F008027B68DA677B68DB6F002BED
:1030E0007FD0FB6903F02003002B0CD0BB6903F0F9
:1030F0002003002B07D07B681B6E002B03D07B685E
:103100001B6E786898477B68DB6FFB607B681B6889
:103110009B6803F04003402B04D0FB6803F00803D6
:10312000002B31D0786800F036FC7B681B689B6808
:1031300003F04003402B23D17B681B689A687B68AF
:103140001B6822F040029A607B68DB6E002B13D074
:103150007B68DB6E264A1A657B68DB6E1846FDF7D6
:1031600071FB0346002B16D07B68DB6E1B6D7A6803
:10317000D26E104698470EE0786800F045F80AE0F5
:10318000786800F041F806E0786800F03DF87B6868
:103190000022DA6725E000BF23E0FB6903F080032B
:1031A000002B0DD0BB6903F08003002B08D07B6897
:1031B0005B6E002B17D07B685B6E7868984712E0D7
:1031C000FB6903F04003002B0ED0BB6903F0400302
:1031D000002B09D0786800F08BFC00BF04E000BF32
:1031E00002E000BF00E000BF2037BD4680BD00BF49
:1031F000D739000880B483B000AF786000BF0C37C7
:10320000BD465DF8047B704780B483B000AF786042
:1032100000BF0C37BD465DF8047B704780B588B0B1
:1032200000AF78600023BB610023FB757B689A6860
:103230007B681B691A437B685B691A437B68DB699F
:1032400013433B617B681B681A68B14B13407A6873
:10325000126839690B4313607B681B685B6823F451
:1032600040517B68DA687B681B680A435A607B6858
:103270009B693B617B681B6A3A6913433B617B68CE
:103280001B689B6823F430617B681B683A690A43BA
:103290009A607B681B689F4A934221D19E4BD3F86A
:1032A000903003F00303032B16D801A252F823F049
:1032B000C1320008CD320008C7320008D3320008FE
:1032C0000123FB7751E10223FB774EE10423FB77D7
:1032D0004BE10823FB7748E11023FB7700BF44E173
:1032E0007B681B688D4A934234D18B4BD3F8903066
:1032F00003F00C030C2B29D801A252F823F000BFD5
:10330000353300084D3300084D3300084D330008B5
:10331000413300084D3300084D3300084D33000899
:103320003B3300084D3300084D3300084D3300088F
:10333000473300080023FB7717E10223FB7714E1F2
:103340000423FB7711E10823FB770EE11023FB77C1
:1033500000BF0AE17B681B68714A934220D16E4B23
:10336000D3F8903003F03003102B0FD0102B02D87D
:10337000002B05D010E0202B05D0302B09D00BE01E
:103380000023FB77F1E00223FB77EEE00423FB77D9
:10339000EBE00823FB77E8E01023FB7700BFE4E0D5
:1033A0007B681B685F4A934220D15B4BD3F8903017
:1033B00003F0C003402B0FD0402B02D8002B05D0C8
:1033C00010E0802B05D0C02B09D00BE00023FB7749
:1033D000CBE00223FB77C8E00423FB77C5E008239A
:1033E000FB77C2E01023FB7700BFBEE07B681B6861
:1033F0004D4A934224D1484BD3F8903003F44073A4
:10340000B3F5807F12D0B3F5807F02D8002B07D0B0
:1034100012E0B3F5007F06D0B3F5407F09D00BE092
:103420000023FB77A1E00223FB779EE00423FB77D8
:103430009BE00823FB7798E01023FB7700BF94E024
:103440007B681B68394A934224D1334BD3F89030C0
:1034500003F44063B3F5806F12D0B3F5806F02D8E8
:10346000002B07D012E0B3F5006F06D0B3F5406F24
:1034700009D00BE00123FB7777E00223FB7774E0B0
:103480000423FB7771E00823FB776EE01023FB77C2
:1034900000BF6AE07B681B68254A934224D11E4B1B
:1034A000D3F8903003F44053B3F5805F12D0B3F5F6
:1034B000805F02D8002B07D012E0B3F5005F06D082
:1034C000B3F5405F09D00BE00023FB774DE002230A
:1034D000FB774AE00423FB7747E00823FB7744E0CF
:1034E0001023FB7700BF40E07B681B68114A9342C2
:1034F00039D1094BD3F8903003F44043B3F5804FF2
:1035000027D0B3F5804F17D8002B1CD027E000BF81
:10351000F369FFEF00100140003802400044004012
:1035200000480040004C00400050004000140140A2
:1035300000780040007C0040B3F5004F06D0B3F5A2
:10354000404F09D00BE00023FB770EE00223FB770E
:103550000BE00423FB7708E00823FB7705E010234A
:10356000FB7700BF01E01023FB777B68DB69B3F5D5
:10357000004F7CD1FB7F082B59D801A252F823F0D1
:10358000A5350008C3350008E13500082F360008CE
:10359000F93500082F3600082F3600082F360008AE
:1035A00017360008FEF77AFD03465A007B685B6811
:1035B0005B081A447B685B68B2FBF3F39BB2BB61A8
:1035C00038E0FEF77FFD03465A007B685B685B08C6
:1035D0001A447B685B68B2FBF3F39BB2BB6129E0E2
:1035E0007B685B685A085D4B13447A685268B3FB8A
:1035F000F2F39BB2BB611DE0FEF76CFC03465A0080
:103600007B685B685B081A447B685B68B2FBF3F31A
:103610009BB2BB610EE07B685B685B0803F58032A0
:103620007B685B68B2FBF3F39BB2BB6102E00123F2
:10363000FB7500BFBB690F2B16D9BB69B3F5803F83
:1036400012D2BB699BB223F00F03FB81BB695B08FD
:103650009BB203F007039AB2FB891343FB817B689B
:103660001B68FA89DA606EE00123FB756BE0FB7F73
:10367000082B57D801A252F823F000BFA13600084A
:10368000BD360008D936000825370008F136000895
:103690002537000825370008253700080D370008B2
:1036A000FEF7FCFC02467B685B685B081A447B689B
:1036B0005B68B2FBF3F39BB2BB6136E0FEF702FD41
:1036C00002467B685B685B081A447B685B68B2FBF8
:1036D000F3F39BB2BB6128E07B685B685A08204B20
:1036E00013447A685268B3FBF2F39BB2BB611CE0EF
:1036F000FEF7F0FB02467B685B685B081A447B6858
:103700005B68B2FBF3F39BB2BB610EE07B685B6866
:103710005B0803F500427B685B68B2FBF3F39BB286
:10372000BB6102E00123FB7500BFBB690F2B08D909
:10373000BB69B3F5803F04D27B681B68BA69DA6065
:1037400001E00123FB757B6800221A667B6800227A
:103750005A66FB7D18462037BD4680BD0048E8010B
:103760000024F40080B483B000AF78607B685B6AAB
:1037700003F00103002B0AD07B681B685B6823F40D
:1037800000317B689A6A7B681B680A435A607B68D1
:103790005B6A03F00203002B0AD07B681B685B683E
:1037A00023F480317B68DA6A7B681B680A435A60BD
:1037B0007B685B6A03F00403002B0AD07B681B68FC
:1037C0005B6823F480217B681A6B7B681B680A4363
:1037D0005A607B685B6A03F00803002B0AD07B68A1
:1037E0001B685B6823F400417B685A6B7B681B682D
:1037F0000A435A607B685B6A03F01003002B0AD00F
:103800007B681B689B6823F480517B689A6B7B689C
:103810001B680A439A607B685B6A03F02003002BF5
:103820000AD07B681B689B6823F400517B68DA6BC5
:103830007B681B680A439A607B685B6A03F04003FD
:10384000002B1AD07B681B685B6823F480117B68AF
:103850001A6C7B681B680A435A607B681B6CB3F563
:10386000801F0AD17B681B685B6823F4C0017B68FA
:103870005A6C7B681B680A435A607B685B6A03F07A
:103880008003002B0AD07B681B685B6823F400214F
:103890007B689A6C7B681B680A435A6000BF0C37D0
:1038A000BD465DF8047B704780B586B002AF786096
:1038B0007B680022DA67FCF7B5FEF8607B681B685E
:1038C0001B6803F00803082B0ED16FF07E430093B2
:1038D000FB6800224FF40011786800F014F80346EA
:1038E000002B01D003230AE07B6820225A677B6803
:1038F00020229A677B68002283F8702000231846F4
:103900001037BD4680BD80B584B000AFF860B960A7
:103910003B601346FB712AE0BB69B3F1FF3F26D041
:10392000FCF780FE02463B68D31ABA699A4202D37A
:10393000BB69002B1BD1FB681B681A68FB681B68FE
:1039400022F4D0721A60FB681B689A68FB681B68D7
:1039500022F001029A60FB6820225A67FB6820224D
:103960009A67FB68002283F8702003230FE0FB684E
:103970001B68DA69BB681340BA689A420CBF01231E
:103980000023DBB21A46FB799A42C5D000231846C1
:103990001037BD4680BD80B483B000AF78607B68CF
:1039A0001B681A687B681B6822F490721A607B6837
:1039B0001B689A687B681B6822F001029A607B682A
:1039C00020229A677B6800221A6600BF0C37BD462A
:1039D0005DF8047B704780B584B000AF78607B6889
:1039E0009B6BFB60FB680022A3F85A20FB68002257
:1039F000A3F85220F868FFF707FC00BF1037BD4658
:103A000080BD80B483B000AF78607B685B6F212B92
:103A10002AD17B68B3F852309BB2002B10D17B685F
:103A20001B681A687B681B6822F080021A607B683A
:103A30001B681A687B681B6842F040021A6013E03A
:103A40007B68DB6C1A787B681B689A627B68DB6C2E
:103A50005A1C7B68DA647B68B3F852309BB2013B36
:103A60009AB27B68A3F8522000BF0C37BD465DF8C0
:103A7000047B704780B485B000AF78607B685B6F73
:103A8000212B2FD17B68B3F852309BB2002B10D181
:103A90007B681B681A687B681B6822F080021A60CA
:103AA0007B681B681A687B681B6842F040021A60DA
:103AB00018E07B68DB6CFB60FB681B881A467B6840
:103AC0001B68C2F308029A627B68DB6C9A1C7B68F5
:103AD000DA647B68B3F852309BB2013B9AB27B68E0
:103AE000A3F8522000BF1437BD465DF8047B704731
:103AF00080B582B000AF78607B681B681A687B680D
:103B00001B6822F040021A607B6820225A677B689B
:103B100000225A667868FFF76DFB00BF0837BD4684
:103B200080BD000084B080B584B000AF786007F13C
:103B30001C0080E80E003B6B012B20D17B689B6B47
:103B400023F480327B689A637B68DA68204B1340E9
:103B50007A68D3607B68DB6823F440127B68DA60A4
:103B6000FB6C012B05D17B68DB6843F480127B681A
:103B7000DA60786800F060FA0346FB7310E07B6857
:103B8000DB6843F040027B68DA60786800F054FA42
:103B90000346FB737B689B6B43F480327B689A63BC
:103BA000BB6A012B0BD17B689B6843F006027B68E4
:103BB0009A607B689B6843F020027B689A60FB7B7D
:103BC00018461037BD46BDE8804004B0704700BFBE
:103BD000BFFFBDFF80B483B000AF78607B689B6897
:103BE00023F001027B689A60002318460C37BD461B
:103BF0005DF8047B704780B582B000AF78600B46FB
:103C0000FB707B68DB6823F0C0427B68DA60FB787E
:103C1000012B06D17B68DB6843F000527B68DA60D9
:103C20000BE0FB78002B06D17B68DB6843F0804219
:103C30007B68DA6001E0012303E03220FCF7FEFC40
:103C4000002318460837BD4680BD000084B080B50B
:103C500086B000AF786007F1240080E80E000023F2
:103C6000FB757B68FB6000233B6109E07A683B6978
:103C700040339B00134400225A603B6901333B618F
:103C80003B690E2BF2D9FB6C002B12D17B689B6B2E
:103C900023F400127B689A637B681B6843F0400240
:103CA0007B681A607B681B6843F080027B681A603F
:103CB00005E07B689B6B43F400127B689A63FB68AA
:103CC00003F560631A4600231360FB6803F5006385
:103CD0001946FB6803F500631A460B681360BB6B5B
:103CE000012B0CD1FB6A002B04D10021786800F075
:103CF00071F918E00121786800F06CF913E0BB6BF2
:103D0000032B0CD1FB6A002B04D10021786800F052
:103D100061F908E00121786800F05CF903E0032113
:103D2000786800F057F91021786800F00BF9034625
:103D3000002B01D00123FB75786800F029F90346B8
:103D4000002B01D00123FB75FB6803F500631A46C5
:103D500000231361FB6803F500631A4600235361D7
:103D6000FB6803F500631A460023D36100233B611F
:103D700043E03B695A01FB68134403F510631B6879
:103D800003F00043B3F1004F18D13B69002B0AD177
:103D90003B695A01FB68134403F510631A464FF060
:103DA0000063136013E03B695A01FB68134403F599
:103DB00010631A464FF09043136008E03B695A01C4
:103DC000FB68134403F510631A46002313603B6934
:103DD0005A01FB68134403F510631A46002313616C
:103DE0003B695A01FB68134403F510631A464FF60A
:103DF0007F3393603B6901333B617B6A3A699A4246
:103E0000B7D300233B6143E03B695A01FB6813448D
:103E100003F530631B6803F00043B3F1004F18D182
:103E20003B69002B0AD13B695A01FB68134403F537
:103E300030631A464FF00063136013E03B695A0188
:103E4000FB68134403F530631A464FF09043136048
:103E500008E03B695A01FB68134403F530631A46D6
:103E6000002313603B695A01FB68134403F5306378
:103E70001A46002313613B695A01FB68134403F59A
:103E800030631A464FF67F3393603B6901333B61E1
:103E90007B6A3A699A42B7D3FB6803F500631B69F2
:103EA000FA6802F5006223F4807313613B6B012B07
:103EB00010D1FB6803F500631A461E4B1363FB68C1
:103EC00003F500631A6BFB6803F5006319461A4B90
:103ED00013430B637B6800229A617B686FF080421A
:103EE0005A613B6B002B05D17B689B6943F0100244
:103EF0007B689A617B689A69104B13437A68936177
:103F0000FB6B002B05D07B689B6943F008027B6844
:103F10009A61FB6C012B05D17B689A69084B1343AE
:103F20007A689361FB7D18461837BD46BDE880402E
:103F300004B07047000180000300010000383C809D
:103F40000400004080B485B000AF78603960002381
:103F5000FB603B689B0143F020027B681A61FB68B1
:103F60000133FB60FB68094A934201D9032306E051
:103F70007B681B6903F02003202BF0D00023184638
:103F80001437BD465DF8047B704700BF400D030049
:103F900080B485B000AF78600023FB607B6810229E
:103FA0001A61FB680133FB60FB68094A934201D93F
:103FB000032306E07B681B6903F01003102BF0D08D
:103FC000002318461437BD465DF8047B704700BFD8
:103FD000400D030080B485B000AF78600B46FB70E5
:103FE0007B68FB60FB6803F500631A68FB78F9687F
:103FF00001F5006113430B60002318461437BD46DA
:104000005DF8047B704780B584B000AF78607B6852
:10401000FB60FB6803F500635B68FA6802F5006209
:1040200043F0020353600320FCF708FB002318460B
:104030001037BD4680BD000080B485B000AF786009
:104040000023FB60FB680133FB60FB68134A93426B
:1040500001D903231BE07B681B69002BF2DA0023E4
:10406000FB607B681B6943F001027B681A61FB6897
:104070000133FB60FB68094A934201D9032306E040
:104080007B681B6903F00103012BF0D00023184665
:104090001437BD465DF8047B704700BF400D030038
:1040A00080B485B000AFEFF30583BB60BB68002B25
:1040B0000FD1EFF310837B607B68002B09D1114B8C
:1040C0001B68022B09D1EFF311833B603B68002B87
:1040D00003D06FF00503FB600CE00A4B1B68002B5C
:1040E00005D1084B01221A600023FB6002E04FF06B
:1040F000FF33FB60FB6818461437BD465DF8047B50
:10410000704700BF9000002080B584B000AFEFF38F
:104110000583BB60BB68002B0FD1EFF310837B607E
:104120007B68002B09D1114B1B68022B09D1EFF3DF
:1041300011833B603B68002B03D06FF00503FB60ED
:104140000EE00A4B1B68012B07D1084B02221A60B4
:1041500001F07AF90023FB6002E04FF0FF33FB60CF
:10416000FB6818461037BD4680BD00BF9000002098
:1041700080B592B004AFF860B9607A6000237B61CB
:10418000EFF305837B627B6A002B40F09480EFF3B2
:1041900010833B623B6A002B40F08D80484B1B68CC
:1041A000022B06D1EFF31183FB61FB69002B40F07A
:1041B0008280FB68002B7ED080233B631823FB6248
:1041C0000023FB7607F11B037B634FF0FF33BB62D9
:1041D0007B68002B45D07B681B68002B02D07B6876
:1041E0001B687B637B689B69002B02D07B689B69A3
:1041F000FB62FB6A002B08D0FB6A382B05D87B6872
:104200005B6803F00103002B01D0002354E07B68BE
:104210005B69002B03D07B685B699B083B637B6811
:104220009B68002B0ED07B68DB685B2B0AD97B6810
:104230001B69002B06D07B685B69002B02D0012331
:10424000BB6210E07B689B68002B0CD17B68DB684D
:10425000002B08D17B681B69002B04D10023BB62B3
:1042600001E00023BB62BB6A012B10D17B681B6994
:104270007A68926802920193FB6A0093BB683A6B7A
:10428000796BF86800F00EFF03467B6113E0BB6AB0
:10429000002B10D13B6B9AB207F114030193FB6A18
:1042A0000093BB68796BF86800F05BFF0346012B55
:1042B00001D000237B617B6918463837BD4680BD3D
:1042C0009000002080B586B000AF7860EFF30583E2
:1042D0003B613B69002B0FD1EFF31083FB60FB6860
:1042E000002B09D10D4B1B68022B09D1EFF3118371
:1042F000BB60BB68002B03D06FF005037B6107E058
:1043000000237B617B68002B02D0786801F066F89F
:104310007B6918461837BD4680BD00BF900000205D
:1043200080B58CB002AFF860B9607A6000237B6220
:10433000EFF30583BB61BB69002B70D1EFF31083F2
:104340007B617B69002B6AD1374B1B68022B05D13F
:10435000EFF311833B613B69002B60D1FB68002BBD
:104360005DD0BB68002B5AD04FF0FF333B627B68B7
:10437000002B29D07B689B68002B12D07B68DB6800
:104380004F2B0ED97B681B69002B0AD07B685A69BA
:10439000FB68B96801FB03F39A4202D301233B6235
:1043A00014E07B689B68002B10D17B68DB68002BD6
:1043B0000CD17B681B69002B08D17B685B69002BE3
:1043C00004D100233B6201E000233B623B6A012BE6
:1043D0000CD17B681A697B689968002300930B46AF
:1043E000B968F86800F074F9786208E03B6A002B5D
:1043F00005D10022B968F86800F0E6F978627B6AB6
:10440000002B0CD07B68002B03D07B681B68FB6102
:1044100001E00023FB61F969786A00F0E7FD7B6A3F
:1044200018462837BD4680BD9000002080B485B076
:1044300000AFF860B9607A60FB68074A1A60BB6831
:10444000064A1A607B6880221A6000BF1437BD4696
:104450005DF8047B704700BF94000020F00000204E
:1044600080B485B000AFF860B9607A60FB68074A35
:104470001A60BB68064A1A607B684FF480721A6043
:1044800000BF1437BD465DF8047B7047F002002082
:104490004C03002080B483B000AF78607B6803F1E8
:1044A00008027B685A607B684FF0FF329A607B6835
:1044B00003F108027B68DA607B6803F108027B681D
:1044C0001A617B6800221A6000BF0C37BD465DF898
:1044D000047B704780B483B000AF78607B680022B3
:1044E0001A6100BF0C37BD465DF8047B704780B48D
:1044F00085B000AF786039607B685B68FB603B68C3
:10450000FA685A60FB689A683B689A60FB689B6827
:104510003A685A60FB683A689A603B687A681A6140
:104520007B681B685A1C7B681A6000BF1437BD4645
:104530005DF8047B704780B485B000AF7860396067
:104540003B681B68BB60BB68B3F1FF3F03D17B686E
:104550001B69FB600CE07B680833FB6002E0FB68D2
:104560005B68FB60FB685B681B68BA689A42F6D2BE
:10457000FB685A683B685A603B685B683A689A60B7
:104580003B68FA689A60FB683A685A603B687A68E8
:104590001A617B681B685A1C7B681A6000BF14375D
:1045A000BD465DF8047B704780B485B000AF78608D
:1045B0007B681B69FB607B685B687A6892689A60BD
:1045C0007B689B687A6852685A60FB685B687A68A7
:1045D0009A4203D17B689A68FB685A607B68002224
:1045E0001A61FB681B685A1EFB681A60FB681B682F
:1045F00018461437BD465DF8047B704780B584B01B
:1046000000AF786039607B68FB60FB68002B0BD1E2
:104610004FF0500372B683F31188BFF36F8FBFF36F
:104620004F8F62B6BB60FEE702F09EF8FB681A6827
:10463000FB68DB6BF968096C01FB03F31A44FB6848
:104640005A60FB6800229A63FB681A68FB689A60EC
:10465000FB681A68FB68DB6B013BF968096C01FBBE
:1046600003F31A44FB68DA60FB68FF2283F84420F6
:10467000FB68FF2283F845203B68002B14D1FB68C0
:104680001B69002B1AD0FB681033184601F070F933
:104690000346002B12D00D4B4FF080521A60BFF32F
:1046A0004F8FBFF36F8F09E0FB6810331846FFF799
:1046B000F1FEFB6824331846FFF7ECFE02F086F8A3
:1046C000012318461037BD4680BD00BF04ED00E051
:1046D00080B58EB002AFF860B9607A603B60FB686D
:1046E000002B0BD14FF0500372B683F31188BFF348
:1046F0006F8FBFF34F8F62B6BB62FEE73B68002B44
:104700000BD14FF0500372B683F31188BFF36F8F54
:10471000BFF34F8F62B67B62FEE77B68002B02D04F
:10472000BB68002B01D0012300E00023002B0BD13C
:104730004FF0500372B683F31188BFF36F8FBFF34E
:104740004F8F62B63B62FEE77B68002B02D1BB68ED
:10475000002B01D1012300E00023002B0BD14FF0EF
:10476000500372B683F31188BFF36F8FBFF34F8F7F
:1047700062B6FB61FEE750237B617B69502B0BD057
:104780004FF0500372B683F31188BFF36F8FBFF3FE
:104790004F8F62B6BB61FEE73B68FB62FB6A002B92
:1047A0000DD0FB6A012283F8462097F83820FB6A77
:1047B000009313467A68B968F86800F044F8FB6A19
:1047C00018463037BD4680BD80B58AB002AFF8606C
:1047D000B9601346FB71FB68002B0BD14FF05003FF
:1047E00072B683F31188BFF36F8FBFF34F8F62B63A
:1047F0003B61FEE7BB68002B02D10023FB6104E0B4
:10480000FB68BA6802FB03F3FB61FB69503318468F
:1048100002F0CCF8B861BB69002B0FD0BB695033F4
:104820007B61BB69002283F84620FA79BB6900935B
:1048300013467A69B968F86800F005F8BB6918464C
:104840002037BD4680BD80B584B000AFF860B96048
:104850007A60FB70BB68002B03D1BB69BA691A6030
:1048600002E0BB697A681A60BB69FA68DA63BB69FF
:10487000BA681A640121B869FFF7C0FEBB69FA780B
:1048800083F84C2000BF1037BD4680BD80B58EB088
:1048900000AFF860B9607A603B6000237B63FB681F
:1048A0003B633B6B002B0BD14FF0500372B683F38D
:1048B0001188BFF36F8FBFF34F8F62B6BB62FEE705
:1048C000BB68002B03D13B6B1B6C002B01D1012378
:1048D00000E00023002B0BD14FF0500372B683F39E
:1048E0001188BFF36F8FBFF34F8F62B67B62FEE715
:1048F0003B68022B03D13B6BDB6B012B01D1012306
:1049000000E00023002B0BD14FF0500372B683F36D
:104910001188BFF36F8FBFF34F8F62B63B62FEE724
:1049200001F022FA0346002B02D17B68002B01D153
:10493000012300E00023002B0BD14FF0500372B68F
:1049400083F31188BFF36F8FBFF34F8F62B6FB61A4
:10495000FEE701F009FF3B6B9A6B3B6BDB6B9A4206
:1049600002D33B68022B29D13A68B968386B00F052
:104970002CFAF8623B6B5B6A002B10D03B6B243344
:10498000184600F0F5FF0346002B13D03F4B4FF0C5
:1049900080521A60BFF34F8FBFF36F8F0AE0FB6A3C
:1049A000002B07D0394B4FF080521A60BFF34F8F66
:1049B000BFF36F8F01F00AFF012363E07B68002BD8
:1049C00003D101F003FF00235CE07B6B002B06D1D9
:1049D00007F11403184601F02FF801237B6301F05F
:1049E000F5FE00F099FD01F0BFFE3B6B93F84430FB
:1049F0005BB2B3F1FF3F03D13B6B002283F844204D
:104A00003B6B93F845305BB2B3F1FF3F03D13B6B97
:104A1000002283F8452001F0D9FE3A1D07F1140366
:104A20001146184601F01EF80346002B24D1386BBE
:104A300000F0C3FA0346002B18D03B6B10337A68A2
:104A40001146184600F042FF386B00F04EFA00F0B5
:104A500071FD0346002B7FF47CAF0C4B4FF080526E
:104A60001A60BFF34F8FBFF36F8F72E7386B00F0A0
:104A70003CFA00F05FFD6CE7386B00F036FA00F0AE
:104A800059FD002318463837BD4680BD04ED00E0CF
:104A900080B58EB000AFF860B9607A603B60FB68AB
:104AA0003B633B6B002B0BD14FF0500372B683F38B
:104AB0001188BFF36F8FBFF34F8F62B67B62FEE743
:104AC000BB68002B03D13B6B1B6C002B01D1012376
:104AD00000E00023002B0BD14FF0500372B683F39C
:104AE0001188BFF36F8FBFF34F8F62B63B62FEE753
:104AF0003B68022B03D13B6BDB6B012B01D1012304
:104B000000E00023002B0BD14FF0500372B683F36B
:104B10001188BFF36F8FBFF34F8F62B6FB61FEE763
:104B200001F002FFEFF311824FF0500372B683F3EE
:104B30001188BFF36F8FBFF34F8F62B6BA617B618D
:104B4000BB69FB623B6B9A6B3B6BDB6B9A4202D39C
:104B50003B68022B2CD13B6B93F8453087F82B3008
:104B60003A68B968386B00F030F997F92B30B3F137
:104B7000FF3F12D13B6B5B6A002B16D03B6B24339B
:104B8000184600F0F5FE0346002B0ED07B68002B84
:104B90000BD07B6801221A6007E097F82B300133B5
:104BA000DBB25AB23B6B83F8452001237B6301E003
:104BB00000237B63FB6A3B613B6983F311887B6B5A
:104BC00018463837BD4680BD80B58CB000AFF86060
:104BD000B9607A600023FB62FB68BB62BB6A002B92
:104BE0000BD14FF0500372B683F31188BFF36F8F70
:104BF000BFF34F8F62B63B62FEE7BB68002B03D169
:104C0000BB6A1B6C002B01D1012300E00023002BA9
:104C10000BD14FF0500372B683F31188BFF36F8F3F
:104C2000BFF34F8F62B6FB61FEE701F09DF80346CC
:104C3000002B02D17B68002B01D1012300E000236F
:104C4000002B0BD14FF0500372B683F31188BFF3E2
:104C50006F8FBFF34F8F62B6BB61FEE701F084FD3B
:104C6000BB6A9B6B7B627B6A002B1FD0B968B86AFA
:104C700000F015F97B6A5A1EBB6A9A63BB6A1B690E
:104C8000002B0FD0BB6A1033184600F071FE0346AC
:104C9000002B07D03C4B4FF080521A60BFF34F8F70
:104CA000BFF36F8F01F092FD012369E07B68002B59
:104CB00003D101F08BFD002362E0FB6A002B06D1DB
:104CC00007F11003184600F0B7FE0123FB6201F064
:104CD0007DFD00F021FC01F047FDBB6A93F84430F4
:104CE0005BB2B3F1FF3F03D1BB6A002283F84420DB
:104CF000BB6A93F845305BB2B3F1FF3F03D1BB6AA7
:104D0000002283F8452001F061FD3A1D07F11003F0
:104D10001146184600F0A6FE0346002B23D1B86AC0
:104D200000F035F90346002B17D0BB6A24337A68AC
:104D30001146184600F0CAFDB86A00F0D6F800F037
:104D4000F9FB0346002B89D10F4B4FF080521A60BC
:104D5000BFF34F8FBFF36F8F80E7B86A00F0C5F8DD
:104D600000F0E8FB7AE7B86A00F0BFF800F0E2FB79
:104D7000B86A00F00CF90346002B3FF46FAF002334
:104D800018463037BD4680BD04ED00E080B584B0E4
:104D900000AF78607B68002B0BD14FF0500372B6E8
:104DA00083F31188BFF36F8FBFF34F8F62B6BB6081
:104DB000FEE701F0D9FC7B689B6BFB6001F006FD10
:104DC000FB6818461037BD4680BD80B586B000AF81
:104DD000F860B9607A6000237B61FB689B6B3B6184
:104DE000FB681B6C002B0DD1FB681B68002B4DD1A1
:104DF000FB685B68184600F0D5FF7861FB6800220D
:104E00005A6043E07B68002B19D1FB689868FB6807
:104E10001B6C1A46B96802F09FFDFB689A68FB6834
:104E20001B6C1A44FB689A60FB689A68FB685B68B5
:104E30009A422BD3FB681A68FB689A6026E0FB68ED
:104E4000D868FB681B6C1A46B96802F085FDFB68E0
:104E5000DA68FB681B6C5B421A44FB68DA60FB682B
:104E6000DA68FB681B689A4207D2FB685A68FB68DD
:104E70001B6C5B421A44FB68DA607B68022B05D12D
:104E80003B69002B02D03B69013B3B613B695A1CEB
:104E9000FB689A637B6918461837BD4680BD80B5AC
:104EA00082B000AF786039607B681B6C002B18D033
:104EB0007B68DA687B681B6C1A447B68DA607B6805
:104EC000DA687B685B689A4203D37B681A687B6800
:104ED000DA607B68D9687B681B6C1A46386802F018
:104EE0003BFD00BF0837BD4680BD80B584B000AF34
:104EF000786001F039FC7B6893F84530FB7311E072
:104F00007B685B6A002B12D07B682433184600F064
:104F10002FFD0346002B01D000F008FEFB7B013B78
:104F2000DBB2FB7397F90F30002BE9DC00E000BF28
:104F30007B68FF2283F8452001F048FC01F014FC57
:104F40007B6893F84430BB7311E07B681B69002BCE
:104F500012D07B681033184600F00AFD0346002B80
:104F600001D000F0E3FDBB7B013BDBB2BB7397F9E3
:104F70000E30002BE9DC00E000BF7B68FF2283F8E5
:104F8000442001F023FC00BF1037BD4680BD80B532
:104F900084B000AF786001F0E7FB7B689B6B002B6F
:104FA00002D10123FB6001E00023FB6001F00EFC55
:104FB000FB6818461037BD4680BD80B584B000AF91
:104FC000786001F0D1FB7B689A6B7B68DB6B9A425F
:104FD00002D10123FB6001E00023FB6001F0F6FB3E
:104FE000FB6818461037BD4680BD000080B485B010
:104FF00000AF786039600023FB6014E00E4AFB6864
:1050000052F83330002B0BD10B49FB683A6841F85A
:105010003320094AFB68DB0013447A685A6005E0D4
:10502000FB680133FB60FB68072BE7D900BF14372F
:10503000BD465DF8047B7047AC8D002080B586B01E
:1050400000AFF860B9607A60FB687B6101F08CFBAF
:105050007B6993F844305BB2B3F1FF3F03D17B69C6
:10506000002283F844207B6993F845305BB2B3F1AA
:10507000FF3F03D17B69002283F8452001F0A6FBA6
:105080007B699B6B002B06D17B6924337A68B968F6
:10509000184600F041FC7869FFF727FF00BF18377A
:1050A000BD4680BD80B58EB004AFF860B9607A604F
:1050B0003B607B6B002B0BD14FF0500372B683F338
:1050C0001188BFF36F8FBFF34F8F62B63B62FEE76D
:1050D000BB6B002B0BD14FF0500372B683F31188DA
:1050E000BFF36F8FBFF34F8F62B6FB61FEE75C23A8
:1050F0003B613B695C2B0BD04FF0500372B683F3DE
:105100001188BFF36F8FBFF34F8F62B6BB61FEE7AD
:10511000BB6B002B1ED07B6B002B1BD0BB6B7B6251
:105120007B6A7A6B1A637B6A022283F85920002318
:1051300003937B6A029307F1140301933B6B009383
:105140003B687A68B968F86800F050F8786A00F04F
:10515000D5F801E000237B617B6918462837BD46FE
:1051600080BD80B58CB004AFF860B9603B60134679
:10517000FB80FB889B00184601F018FC78617B6976
:10518000002B0ED05C2001F011FCF861FB69002BB4
:1051900003D0FB697A691A6305E0786901F0CEFCF7
:1051A00001E00023FB61FB69002B17D0FB690022A3
:1051B00083F85920FA8800230393FB690293FB6A62
:1051C0000193BB6A00933B68B968F86800F00EF879
:1051D000F86900F093F80123BB6102E04FF0FF3360
:1051E000BB61BB6918462037BD4680BD80B588B01D
:1051F00000AFF860B9607A603B603B6B186B7B680E
:105200009B001A46A52102F0B2FB3B6B1A6B796832
:105210006FF040430B449B001344BB61BB6923F018
:105220000703BB61BB6903F00703002B0BD04FF0F2
:10523000500372B683F31188BFF36F8FBFF34F8FA4
:1052400062B67B61FEE70023FB6112E0BA68FB698E
:10525000134419783A6BFB69134434330A461A70C5
:10526000BA68FB6913441B78002B06D0FB69013335
:10527000FB61FB690F2BE9D900E000BF3B6B00220B
:1052800083F84320BB6A372B01D93723BB623B6BC2
:10529000BA6ADA623B6BBA6ADA643B6B00221A655F
:1052A0003B6B04331846FFF715F93B6B1833184670
:1052B000FFF710F93B6B3A6B1A61BB6AC3F1380216
:1052C0003B6B9A613B6B3A6B5A623B6B00225A65AF
:1052D0003B6B002283F858203A68F968B86901F0FE
:1052E0003DF902463B6B1A60FB6A002B02D0FB6A59
:1052F0003A6B1A6000BF2037BD4680BD80B582B0D2
:1053000000AF786001F030FA2D4B1B6801332C4A56
:1053100013602C4B1B68002B09D12A4A7B68136051
:10532000274B1B68012B10D100F024FC0DE0264B0D
:105330001B68002B09D1234B1B68DA6A7B68DB6A88
:105340009A4202D81F4A7B681360204B1B680133C6
:105350001E4A13601D4B1A687B685A647B68DA6AC0
:105360001B4B1B689A4203D97B68DB6A184A13609F
:105370007B68DA6A13469B0013449B00154A1A4463
:105380007B68043319461046FFF7B1F801F01EFAA6
:105390000D4B1B68002B0ED00A4B1B68DA6A7B682A
:1053A000DB6A9A4207D20C4B4FF080521A60BFF36F
:1053B0004F8FBFF36F8F00BF0837BD4680BD00BF62
:1053C000200C00204C0700202C0C00203C0C00205E
:1053D000280C00205007002004ED00E080B584B0C8
:1053E00000AF78600023FB607B68002B18D0144B63
:1053F0001B68002B0BD04FF0500372B683F311885B
:10540000BFF36F8FBFF34F8F62B6BB60FEE700F054
:1054100083F80021786800F035FD00F08BF8F86023
:10542000FB68002B07D1074B4FF080521A60BFF387
:105430004F8FBFF36F8F00BF1037BD4680BD00BFD9
:10544000480C002004ED00E080B58AB004AF0023D2
:10545000BB6000237B603A46391D07F108031846FC
:10546000FEF7E4FF39687B68BA6802920193002373
:10547000009300230A4622492248FFF713FE024602
:10548000214B1A60204B1B68002B02D001237B614B
:1054900001E000237B617B69012B02D100F046FD16
:1054A00078617B69012B17D14FF0500372B683F3FB
:1054B0001188BFF36F8FBFF34F8F62B63B61134B01
:1054C0004FF0FF321A60124B01221A60114B00227A
:1054D0001A6001F0CDF80FE07B69B3F1FF3F0BD10B
:1054E0004FF0500372B683F31188BFF36F8FBFF391
:1054F0004F8F62B6FB60FEE700BF1837BD4680BD28
:10550000B4810008455B0008440C0020400C0020DA
:105510002C0C0020240C002080B400AF044B1B682E
:105520000133034A136000BFBD465DF8047B70473A
:10553000480C002080B584B000AF0023FB6000233E
:10554000BB60424B1B68002B0BD14FF0500372B66F
:1055500083F31188BFF36F8FBFF34F8F62B63B6049
:10556000FEE701F001F9394B1B68013B374A136034
:10557000364B1B68002B62D1354B1B68002B5ED06D
:105580002FE0344BDB68DB68FB60FB6818331846A0
:10559000FFF70AF8FB6804331846FFF705F8FB68C5
:1055A000DA6A2D4B1B689A4203D9FB68DB6A2A4AE8
:1055B0001360FB68DA6A13469B0013449B00274A7A
:1055C0001A44FB68043319461046FEF790FFFB6847
:1055D000DA6A234B1B68DB6A9A4202D3214B012211
:1055E0001A601C4B1B68002BCBD1FB68002B01D031
:1055F00000F094FB1C4B1B687B607B68002B10D079
:1056000000F046F80346002B02D0164B01221A6028
:105610007B68013B7B607B68002BF1D1124B002241
:105620001A60104B1B68002B09D00123BB600F4B85
:105630004FF080521A60BFF34F8FBFF36F8F01F0AE
:10564000C5F8BB6818461037BD4680BD480C002021
:10565000200C0020E00B0020280C00205007002028
:105660004C070020340C0020300C002004ED00E03A
:1056700080B483B000AF054B1B687B607B68184625
:105680000C37BD465DF8047B704700BF240C00203A
:1056900080B586B000AF00237B61524B1B68002BA6
:1056A00040F08F80504B1B6801333B614E4A3B6991
:1056B00013603B69002B21D14C4B1B681B68002BEE
:1056C0000BD04FF0500372B683F31188BFF36F8F86
:1056D000BFF34F8F62B63B60FEE7444B1B68FB6035
:1056E000434B1B68414A1360414AFB681360414BBE
:1056F0001B6801333F4A136000F010FB3E4B1B68F0
:105700003A699A424ED3394B1B681B68002B01D172
:10571000012300E00023002B04D0374B4FF0FF3271
:105720001A603FE0314B1B68DB68DB68BB60BB681D
:105730005B687B603A697B689A4203D22E4A7B6839
:1057400013602FE0BB6804331846FEF72DFFBB68DB
:105750009B6A002B04D0BB6818331846FEF724FF61
:10576000BB68DA6A254B1B689A4203D9BB68DB6ABF
:10577000224A1360BB68DA6A13469B0013449B00FD
:105780001F4A1A44BB68043319461046FEF7AFFEA1
:10579000BB68DA6A1B4B1B68DB6A9A42B3D30123EE
:1057A0007B61B0E7174B1B68DA6A154913469B000B
:1057B00013449B000B441B68012B07D901237B6119
:1057C00004E0114B1B6801330F4A13600F4B1B6839
:1057D000002B01D001237B617B6918461837BD4639
:1057E00080BD00BF480C0020240C0020D80B0020F6
:1057F000DC0B0020380C0020400C0020280C00207E
:10580000500700204C070020300C0020340C0020F2
:1058100080B485B000AF284B1B68002B03D0274B0A
:1058200001221A6042E0254B00221A60244B1B68BB
:10583000FB6011E0FB68002B0BD14FF0500372B6F8
:1058400083F31188BFF36F8FBFF34F8F62B67B6016
:10585000FEE7FB68013BFB601A49FA6813469B00B0
:1058600013449B000B441B68002BE3D0FA681346DB
:105870009B0013449B00134A1344BB60BB685B68E6
:105880005A68BB685A60BB685A68BB6808339A425A
:1058900004D1BB685B685A68BB685A60BB685B68C8
:1058A000DB68094A1360064AFB68136000BF1437BF
:1058B000BD465DF8047B7047480C0020340C002086
:1058C000280C0020500700204C07002080B584B031
:1058D00000AF786039607B68002B0BD14FF050032C
:1058E00072B683F31188BFF36F8FBFF34F8F62B629
:1058F000FB60FEE7074B1B68183319467868FEF714
:105900001AFE0121386800F0BDFA00BF1037BD460D
:1059100080BD00BF4C07002080B586B000AFF860A6
:10592000B9607A60FB68002B0BD14FF0500372B660
:1059300083F31188BFF36F8FBFF34F8F62B67B6124
:10594000FEE70A4B1B6818331946F868FEF7CFFDCF
:105950007B68002B02D04FF0FF33BB607968B868DA
:1059600000F090FA00BF1837BD4680BD4C070020FC
:1059700080B586B000AF78607B68DB68DB683B6130
:105980003B69002B0BD14FF0500372B683F31188A3
:10599000BFF36F8FBFF34F8F62B6FB60FEE73B69CB
:1059A00018331846FEF700FE1D4B1B68002B1DD157
:1059B0003B6904331846FEF7F7FD3B69DA6A194B79
:1059C0001B689A4203D93B69DB6A164A13603B693C
:1059D000DA6A13469B0013449B00134A1A443B693E
:1059E000043319461046FEF782FD05E03B69183383
:1059F00019460E48FEF77BFD3B69DA6A0C4B1B68C3
:105A0000DB6A9A4205D901237B610A4B01221A60A5
:105A100001E000237B617B6918461837BD4680BDD5
:105A2000480C0020280C002050070020E00B00202C
:105A30004C070020340C002080B483B000AF7860A5
:105A4000064B1A687B681A60054B1A687B685A60B7
:105A500000BF0C37BD465DF8047B7047380C002052
:105A6000240C002080B588B000AF786039607B6876
:105A7000002B0BD14FF0500372B683F31188BFF3A4
:105A80006F8FBFF34F8F62B63B61FEE73B68002B21
:105A90000BD14FF0500372B683F31188BFF36F8FB1
:105AA000BFF34F8F62B6FB60FEE700F05DFE1D4B5B
:105AB0001B68BB617B685B68BA69D31A7B613B6812
:105AC0001B68B3F1FF3F02D10023FB6123E07B6839
:105AD0001A68154B1B689A4207D07B685B68BA69E5
